{
  "contractName": "KYC",
  "abi": [
    {
      "inputs": [
        {
          "internalType": "string",
          "name": "name_",
          "type": "string"
        },
        {
          "internalType": "string",
          "name": "email_",
          "type": "string"
        }
      ],
      "stateMutability": "nonpayable",
      "type": "constructor"
    },
    {
      "anonymous": false,
      "inputs": [
        {
          "indexed": false,
          "internalType": "address",
          "name": "id_",
          "type": "address"
        },
        {
          "indexed": false,
          "internalType": "string",
          "name": "name",
          "type": "string"
        }
      ],
      "name": "BankActivated",
      "type": "event"
    },
    {
      "anonymous": false,
      "inputs": [
        {
          "indexed": false,
          "internalType": "address",
          "name": "id_",
          "type": "address"
        },
        {
          "indexed": false,
          "internalType": "string",
          "name": "name",
          "type": "string"
        },
        {
          "indexed": false,
          "internalType": "string",
          "name": "email",
          "type": "string"
        },
        {
          "indexed": false,
          "internalType": "string",
          "name": "ifscCode",
          "type": "string"
        }
      ],
      "name": "BankAdded",
      "type": "event"
    },
    {
      "anonymous": false,
      "inputs": [
        {
          "indexed": false,
          "internalType": "address",
          "name": "id_",
          "type": "address"
        },
        {
          "indexed": false,
          "internalType": "string",
          "name": "name",
          "type": "string"
        }
      ],
      "name": "BankDeactivated",
      "type": "event"
    },
    {
      "anonymous": false,
      "inputs": [
        {
          "indexed": false,
          "internalType": "address",
          "name": "id_",
          "type": "address"
        },
        {
          "indexed": false,
          "internalType": "string",
          "name": "name",
          "type": "string"
        },
        {
          "indexed": false,
          "internalType": "string",
          "name": "email",
          "type": "string"
        }
      ],
      "name": "BankUpdated",
      "type": "event"
    },
    {
      "anonymous": false,
      "inputs": [
        {
          "indexed": false,
          "internalType": "address",
          "name": "id_",
          "type": "address"
        },
        {
          "indexed": false,
          "internalType": "string",
          "name": "name",
          "type": "string"
        },
        {
          "indexed": false,
          "internalType": "string",
          "name": "email",
          "type": "string"
        }
      ],
      "name": "CustomerAdded",
      "type": "event"
    },
    {
      "anonymous": false,
      "inputs": [
        {
          "indexed": false,
          "internalType": "address",
          "name": "id_",
          "type": "address"
        },
        {
          "indexed": false,
          "internalType": "string",
          "name": "name",
          "type": "string"
        },
        {
          "indexed": false,
          "internalType": "string",
          "name": "email",
          "type": "string"
        }
      ],
      "name": "CustomerDataUpdated",
      "type": "event"
    },
    {
      "anonymous": false,
      "inputs": [
        {
          "indexed": false,
          "internalType": "string",
          "name": "reqId",
          "type": "string"
        },
        {
          "indexed": false,
          "internalType": "address",
          "name": "customerId",
          "type": "address"
        },
        {
          "indexed": false,
          "internalType": "address",
          "name": "bankId",
          "type": "address"
        },
        {
          "indexed": false,
          "internalType": "enum Types.DataHashStatus",
          "name": "status",
          "type": "uint8"
        }
      ],
      "name": "DataHashPermissionChanged",
      "type": "event"
    },
    {
      "anonymous": false,
      "inputs": [
        {
          "indexed": false,
          "internalType": "address",
          "name": "id_",
          "type": "address"
        },
        {
          "indexed": false,
          "internalType": "string",
          "name": "customerName",
          "type": "string"
        },
        {
          "indexed": false,
          "internalType": "string",
          "name": "dataHash",
          "type": "string"
        }
      ],
      "name": "DataHashUpdated",
      "type": "event"
    },
    {
      "anonymous": false,
      "inputs": [
        {
          "indexed": false,
          "internalType": "string",
          "name": "reqId",
          "type": "string"
        },
        {
          "indexed": false,
          "internalType": "string",
          "name": "bankName",
          "type": "string"
        },
        {
          "indexed": false,
          "internalType": "string",
          "name": "customerName",
          "type": "string"
        }
      ],
      "name": "KycReRequested",
      "type": "event"
    },
    {
      "anonymous": false,
      "inputs": [
        {
          "indexed": false,
          "internalType": "string",
          "name": "reqId",
          "type": "string"
        },
        {
          "indexed": false,
          "internalType": "string",
          "name": "bankName",
          "type": "string"
        },
        {
          "indexed": false,
          "internalType": "string",
          "name": "customerName",
          "type": "string"
        }
      ],
      "name": "KycRequestAdded",
      "type": "event"
    },
    {
      "anonymous": false,
      "inputs": [
        {
          "indexed": false,
          "internalType": "string",
          "name": "reqId",
          "type": "string"
        },
        {
          "indexed": false,
          "internalType": "address",
          "name": "customerId",
          "type": "address"
        },
        {
          "indexed": false,
          "internalType": "address",
          "name": "bankId",
          "type": "address"
        },
        {
          "indexed": false,
          "internalType": "enum Types.KycStatus",
          "name": "status",
          "type": "uint8"
        }
      ],
      "name": "KycStatusChanged",
      "type": "event"
    },
    {
      "inputs": [
        {
          "internalType": "uint256",
          "name": "pageNumber",
          "type": "uint256"
        }
      ],
      "name": "getAllBanks",
      "outputs": [
        {
          "internalType": "uint256",
          "name": "totalPages",
          "type": "uint256"
        },
        {
          "components": [
            {
              "internalType": "string",
              "name": "name",
              "type": "string"
            },
            {
              "internalType": "string",
              "name": "email",
              "type": "string"
            },
            {
              "internalType": "address",
              "name": "id_",
              "type": "address"
            },
            {
              "internalType": "string",
              "name": "ifscCode",
              "type": "string"
            },
            {
              "internalType": "uint16",
              "name": "kycCount",
              "type": "uint16"
            },
            {
              "internalType": "enum Types.BankStatus",
              "name": "status",
              "type": "uint8"
            }
          ],
          "internalType": "struct Types.Bank[]",
          "name": "",
          "type": "tuple[]"
        }
      ],
      "stateMutability": "view",
      "type": "function"
    },
    {
      "inputs": [
        {
          "components": [
            {
              "internalType": "string",
              "name": "name",
              "type": "string"
            },
            {
              "internalType": "string",
              "name": "email",
              "type": "string"
            },
            {
              "internalType": "address",
              "name": "id_",
              "type": "address"
            },
            {
              "internalType": "string",
              "name": "ifscCode",
              "type": "string"
            },
            {
              "internalType": "uint16",
              "name": "kycCount",
              "type": "uint16"
            },
            {
              "internalType": "enum Types.BankStatus",
              "name": "status",
              "type": "uint8"
            }
          ],
          "internalType": "struct Types.Bank",
          "name": "bank_",
          "type": "tuple"
        }
      ],
      "name": "addBank",
      "outputs": [],
      "stateMutability": "nonpayable",
      "type": "function"
    },
    {
      "inputs": [
        {
          "internalType": "address",
          "name": "id_",
          "type": "address"
        },
        {
          "internalType": "string",
          "name": "email_",
          "type": "string"
        },
        {
          "internalType": "string",
          "name": "name_",
          "type": "string"
        }
      ],
      "name": "updateBankDetails",
      "outputs": [],
      "stateMutability": "nonpayable",
      "type": "function"
    },
    {
      "inputs": [
        {
          "internalType": "address",
          "name": "id_",
          "type": "address"
        },
        {
          "internalType": "bool",
          "name": "makeActive_",
          "type": "bool"
        }
      ],
      "name": "activateDeactivateBank",
      "outputs": [],
      "stateMutability": "nonpayable",
      "type": "function"
    },
    {
      "inputs": [
        {
          "internalType": "uint256",
          "name": "pageNumber",
          "type": "uint256"
        }
      ],
      "name": "getCustomersOfBank",
      "outputs": [
        {
          "internalType": "uint256",
          "name": "totalPages",
          "type": "uint256"
        },
        {
          "components": [
            {
              "internalType": "string",
              "name": "id_",
              "type": "string"
            },
            {
              "internalType": "address",
              "name": "userId_",
              "type": "address"
            },
            {
              "internalType": "string",
              "name": "customerName",
              "type": "string"
            },
            {
              "internalType": "address",
              "name": "bankId_",
              "type": "address"
            },
            {
              "internalType": "string",
              "name": "bankName",
              "type": "string"
            },
            {
              "internalType": "string",
              "name": "dataHash",
              "type": "string"
            },
            {
              "internalType": "uint256",
              "name": "updatedOn",
              "type": "uint256"
            },
            {
              "internalType": "enum Types.KycStatus",
              "name": "status",
              "type": "uint8"
            },
            {
              "internalType": "enum Types.DataHashStatus",
              "name": "dataRequest",
              "type": "uint8"
            },
            {
              "internalType": "string",
              "name": "additionalNotes",
              "type": "string"
            }
          ],
          "internalType": "struct Types.KycRequest[]",
          "name": "",
          "type": "tuple[]"
        }
      ],
      "stateMutability": "view",
      "type": "function"
    },
    {
      "inputs": [
        {
          "components": [
            {
              "internalType": "string",
              "name": "name",
              "type": "string"
            },
            {
              "internalType": "string",
              "name": "email",
              "type": "string"
            },
            {
              "internalType": "uint256",
              "name": "mobileNumber",
              "type": "uint256"
            },
            {
              "internalType": "address",
              "name": "id_",
              "type": "address"
            },
            {
              "internalType": "address",
              "name": "kycVerifiedBy",
              "type": "address"
            },
            {
              "internalType": "string",
              "name": "dataHash",
              "type": "string"
            },
            {
              "internalType": "uint256",
              "name": "dataUpdatedOn",
              "type": "uint256"
            }
          ],
          "internalType": "struct Types.Customer",
          "name": "customer_",
          "type": "tuple"
        },
        {
          "internalType": "uint256",
          "name": "currentTime_",
          "type": "uint256"
        },
        {
          "internalType": "string",
          "name": "notes_",
          "type": "string"
        }
      ],
      "name": "addKycRequest",
      "outputs": [],
      "stateMutability": "nonpayable",
      "type": "function"
    },
    {
      "inputs": [
        {
          "internalType": "address",
          "name": "id_",
          "type": "address"
        },
        {
          "internalType": "string",
          "name": "notes_",
          "type": "string"
        }
      ],
      "name": "reRequestForKycRequest",
      "outputs": [],
      "stateMutability": "nonpayable",
      "type": "function"
    },
    {
      "inputs": [
        {
          "internalType": "address",
          "name": "userId_",
          "type": "address"
        },
        {
          "internalType": "bool",
          "name": "verified_",
          "type": "bool"
        },
        {
          "internalType": "string",
          "name": "note_",
          "type": "string"
        }
      ],
      "name": "updateKycVerification",
      "outputs": [],
      "stateMutability": "nonpayable",
      "type": "function"
    },
    {
      "inputs": [
        {
          "internalType": "address",
          "name": "id_",
          "type": "address"
        }
      ],
      "name": "searchCustomers",
      "outputs": [
        {
          "internalType": "bool",
          "name": "",
          "type": "bool"
        },
        {
          "components": [
            {
              "internalType": "string",
              "name": "name",
              "type": "string"
            },
            {
              "internalType": "string",
              "name": "email",
              "type": "string"
            },
            {
              "internalType": "uint256",
              "name": "mobileNumber",
              "type": "uint256"
            },
            {
              "internalType": "address",
              "name": "id_",
              "type": "address"
            },
            {
              "internalType": "address",
              "name": "kycVerifiedBy",
              "type": "address"
            },
            {
              "internalType": "string",
              "name": "dataHash",
              "type": "string"
            },
            {
              "internalType": "uint256",
              "name": "dataUpdatedOn",
              "type": "uint256"
            }
          ],
          "internalType": "struct Types.Customer",
          "name": "",
          "type": "tuple"
        },
        {
          "components": [
            {
              "internalType": "string",
              "name": "id_",
              "type": "string"
            },
            {
              "internalType": "address",
              "name": "userId_",
              "type": "address"
            },
            {
              "internalType": "string",
              "name": "customerName",
              "type": "string"
            },
            {
              "internalType": "address",
              "name": "bankId_",
              "type": "address"
            },
            {
              "internalType": "string",
              "name": "bankName",
              "type": "string"
            },
            {
              "internalType": "string",
              "name": "dataHash",
              "type": "string"
            },
            {
              "internalType": "uint256",
              "name": "updatedOn",
              "type": "uint256"
            },
            {
              "internalType": "enum Types.KycStatus",
              "name": "status",
              "type": "uint8"
            },
            {
              "internalType": "enum Types.DataHashStatus",
              "name": "dataRequest",
              "type": "uint8"
            },
            {
              "internalType": "string",
              "name": "additionalNotes",
              "type": "string"
            }
          ],
          "internalType": "struct Types.KycRequest",
          "name": "",
          "type": "tuple"
        }
      ],
      "stateMutability": "view",
      "type": "function"
    },
    {
      "inputs": [
        {
          "internalType": "uint256",
          "name": "pageNumber",
          "type": "uint256"
        }
      ],
      "name": "getBankRequests",
      "outputs": [
        {
          "internalType": "uint256",
          "name": "totalPages",
          "type": "uint256"
        },
        {
          "components": [
            {
              "internalType": "string",
              "name": "id_",
              "type": "string"
            },
            {
              "internalType": "address",
              "name": "userId_",
              "type": "address"
            },
            {
              "internalType": "string",
              "name": "customerName",
              "type": "string"
            },
            {
              "internalType": "address",
              "name": "bankId_",
              "type": "address"
            },
            {
              "internalType": "string",
              "name": "bankName",
              "type": "string"
            },
            {
              "internalType": "string",
              "name": "dataHash",
              "type": "string"
            },
            {
              "internalType": "uint256",
              "name": "updatedOn",
              "type": "uint256"
            },
            {
              "internalType": "enum Types.KycStatus",
              "name": "status",
              "type": "uint8"
            },
            {
              "internalType": "enum Types.DataHashStatus",
              "name": "dataRequest",
              "type": "uint8"
            },
            {
              "internalType": "string",
              "name": "additionalNotes",
              "type": "string"
            }
          ],
          "internalType": "struct Types.KycRequest[]",
          "name": "",
          "type": "tuple[]"
        }
      ],
      "stateMutability": "view",
      "type": "function"
    },
    {
      "inputs": [
        {
          "internalType": "address",
          "name": "bankId_",
          "type": "address"
        },
        {
          "internalType": "bool",
          "name": "approve_",
          "type": "bool"
        },
        {
          "internalType": "string",
          "name": "note_",
          "type": "string"
        }
      ],
      "name": "actionOnKycRequest",
      "outputs": [],
      "stateMutability": "nonpayable",
      "type": "function"
    },
    {
      "inputs": [
        {
          "internalType": "string",
          "name": "name_",
          "type": "string"
        },
        {
          "internalType": "string",
          "name": "email_",
          "type": "string"
        },
        {
          "internalType": "uint256",
          "name": "mobile_",
          "type": "uint256"
        }
      ],
      "name": "updateProfile",
      "outputs": [],
      "stateMutability": "nonpayable",
      "type": "function"
    },
    {
      "inputs": [
        {
          "internalType": "string",
          "name": "hash_",
          "type": "string"
        },
        {
          "internalType": "uint256",
          "name": "currentTime_",
          "type": "uint256"
        }
      ],
      "name": "updateDatahash",
      "outputs": [],
      "stateMutability": "nonpayable",
      "type": "function"
    },
    {
      "inputs": [
        {
          "internalType": "address",
          "name": "bankId_",
          "type": "address"
        },
        {
          "internalType": "string",
          "name": "notes_",
          "type": "string"
        }
      ],
      "name": "removerDatahashPermission",
      "outputs": [],
      "stateMutability": "nonpayable",
      "type": "function"
    },
    {
      "inputs": [
        {
          "internalType": "address",
          "name": "bankId_",
          "type": "address"
        }
      ],
      "name": "searchBanks",
      "outputs": [
        {
          "internalType": "bool",
          "name": "",
          "type": "bool"
        },
        {
          "components": [
            {
              "internalType": "string",
              "name": "name",
              "type": "string"
            },
            {
              "internalType": "string",
              "name": "email",
              "type": "string"
            },
            {
              "internalType": "address",
              "name": "id_",
              "type": "address"
            },
            {
              "internalType": "string",
              "name": "ifscCode",
              "type": "string"
            },
            {
              "internalType": "uint16",
              "name": "kycCount",
              "type": "uint16"
            },
            {
              "internalType": "enum Types.BankStatus",
              "name": "status",
              "type": "uint8"
            }
          ],
          "internalType": "struct Types.Bank",
          "name": "",
          "type": "tuple"
        },
        {
          "components": [
            {
              "internalType": "string",
              "name": "id_",
              "type": "string"
            },
            {
              "internalType": "address",
              "name": "userId_",
              "type": "address"
            },
            {
              "internalType": "string",
              "name": "customerName",
              "type": "string"
            },
            {
              "internalType": "address",
              "name": "bankId_",
              "type": "address"
            },
            {
              "internalType": "string",
              "name": "bankName",
              "type": "string"
            },
            {
              "internalType": "string",
              "name": "dataHash",
              "type": "string"
            },
            {
              "internalType": "uint256",
              "name": "updatedOn",
              "type": "uint256"
            },
            {
              "internalType": "enum Types.KycStatus",
              "name": "status",
              "type": "uint8"
            },
            {
              "internalType": "enum Types.DataHashStatus",
              "name": "dataRequest",
              "type": "uint8"
            },
            {
              "internalType": "string",
              "name": "additionalNotes",
              "type": "string"
            }
          ],
          "internalType": "struct Types.KycRequest",
          "name": "",
          "type": "tuple"
        }
      ],
      "stateMutability": "view",
      "type": "function"
    },
    {
      "inputs": [],
      "name": "whoAmI",
      "outputs": [
        {
          "components": [
            {
              "internalType": "string",
              "name": "name",
              "type": "string"
            },
            {
              "internalType": "string",
              "name": "email",
              "type": "string"
            },
            {
              "internalType": "address",
              "name": "id_",
              "type": "address"
            },
            {
              "internalType": "enum Types.Role",
              "name": "role",
              "type": "uint8"
            },
            {
              "internalType": "enum Types.BankStatus",
              "name": "status",
              "type": "uint8"
            }
          ],
          "internalType": "struct Types.User",
          "name": "",
          "type": "tuple"
        }
      ],
      "stateMutability": "view",
      "type": "function"
    },
    {
      "inputs": [
        {
          "internalType": "address",
          "name": "id_",
          "type": "address"
        }
      ],
      "name": "getCustomerDetails",
      "outputs": [
        {
          "components": [
            {
              "internalType": "string",
              "name": "name",
              "type": "string"
            },
            {
              "internalType": "string",
              "name": "email",
              "type": "string"
            },
            {
              "internalType": "uint256",
              "name": "mobileNumber",
              "type": "uint256"
            },
            {
              "internalType": "address",
              "name": "id_",
              "type": "address"
            },
            {
              "internalType": "address",
              "name": "kycVerifiedBy",
              "type": "address"
            },
            {
              "internalType": "string",
              "name": "dataHash",
              "type": "string"
            },
            {
              "internalType": "uint256",
              "name": "dataUpdatedOn",
              "type": "uint256"
            }
          ],
          "internalType": "struct Types.Customer",
          "name": "",
          "type": "tuple"
        }
      ],
      "stateMutability": "view",
      "type": "function"
    },
    {
      "inputs": [
        {
          "internalType": "address",
          "name": "id_",
          "type": "address"
        }
      ],
      "name": "getBankDetails",
      "outputs": [
        {
          "components": [
            {
              "internalType": "string",
              "name": "name",
              "type": "string"
            },
            {
              "internalType": "string",
              "name": "email",
              "type": "string"
            },
            {
              "internalType": "address",
              "name": "id_",
              "type": "address"
            },
            {
              "internalType": "string",
              "name": "ifscCode",
              "type": "string"
            },
            {
              "internalType": "uint16",
              "name": "kycCount",
              "type": "uint16"
            },
            {
              "internalType": "enum Types.BankStatus",
              "name": "status",
              "type": "uint8"
            }
          ],
          "internalType": "struct Types.Bank",
          "name": "",
          "type": "tuple"
        }
      ],
      "stateMutability": "view",
      "type": "function"
    }
  ],
  "bytecode": "0x60806040523480156200001157600080fd5b5060405162005b3338038062005b33833981016040819052620000349162000299565b60048054600160a060020a031916339081179091556040805160a08101825284815260208082018590528183018490526000606083018190526080830181905293845260069052912081518291908190620000909082620003dc565b5060208201516001820190620000a79082620003dc565b50604082015160028083018054600160a060020a03909316600160a060020a03198416811782556060860151939192600160a860020a03199092161790740100000000000000000000000000000000000000009084908111156200010f576200010f62000303565b0217905550608082015160028201805460a860020a60ff021916750100000000000000000000000000000000000000000083600181111562000155576200015562000303565b021790555050600454600580546001810182556000919091527f036b6384b5eca791c62761152d0c79bb0604c104a5fb6f4eb0703f3154bb3db0018054600160a060020a031916600160a060020a0390921691909117905550620004ae92505050565b7f4e487b7100000000000000000000000000000000000000000000000000000000600052604160045260246000fd5b600082601f830112620001f957600080fd5b81516001604060020a0380821115620002165762000216620001b8565b604051601f8301601f19908116603f01168101908282118183101715620002415762000241620001b8565b81604052838152602092508660208588010111156200025f57600080fd5b600091505b8382101562000283578582018301518183018401529082019062000264565b6000602085830101528094505050505092915050565b60008060408385031215620002ad57600080fd5b82516001604060020a0380821115620002c557600080fd5b620002d386838701620001e7565b93506020850151915080821115620002ea57600080fd5b50620002f985828601620001e7565b9150509250929050565b7f4e487b7100000000000000000000000000000000000000000000000000000000600052602160045260246000fd5b6002810460018216806200034757607f821691505b60208210810362000381577f4e487b7100000000000000000000000000000000000000000000000000000000600052602260045260246000fd5b50919050565b601f821115620003d75760008160005260206000206020601f86010481016020861015620003b25750805b6020601f860104820191505b81811015620003d357828155600101620003be565b5050505b505050565b81516001604060020a03811115620003f857620003f8620001b8565b620004108162000409845462000332565b8462000387565b602080601f8311600181146200044c57600084156200042f5750858301515b60028086026008870290910a6000190419821617865550620003d3565b600085815260208120601f198616915b828110156200047d578886015182559484019460019091019084016200045c565b50858210156200049e57878501516008601f88160260020a60001904191681555b5050505050600202600101905550565b61567580620004be6000396000f3fe608060405234801561001057600080fd5b5060043610610133576000357c0100000000000000000000000000000000000000000000000000000000900480635f4d6ddf116100bf578063b374a7dd1161008e578063b374a7dd14610280578063baa2b9fd14610293578063da91254c146102b4578063dbc671d0146102c9578063dc57d07e146102dc57600080fd5b80635f4d6ddf1461022557806377fa069c146102475780637c1d61971461025a5780638915fb0c1461026d57600080fd5b80632ce23acb116101065780632ce23acb146101a957806334b52411146101cb578063369ba32b146101de5780633f2c0e96146101f15780634d82d8e81461020457600080fd5b80630c60f83d1461013857806315101e02146101615780631bdd5a0f146101815780632283db9c14610196575b600080fd5b61014b610146366004614720565b6102ef565b604051610158919061481e565b60405180910390f35b61017461016f366004614720565b610458565b60405161015891906148e4565b61019461018f3660046149e9565b610540565b005b6101946101a4366004614a58565b6107c6565b6101bc6101b7366004614720565b61098a565b60405161015893929190614c4d565b6101946101d9366004614c8a565b610fb4565b6101946101ec366004614ce8565b611268565b6101946101ff3660046149e9565b6112ee565b610217610212366004614d52565b6114a8565b604051610158929190614d6b565b610238610233366004614720565b6114ed565b60405161015893929190614dd7565b610194610255366004614df2565b611ad6565b610194610268366004614ef6565b61204b565b61019461027b366004614f63565b612136565b61019461028e366004614fa8565b612399565b6102a66102a1366004614d52565b612438565b604051610158929190614fdb565b6102bc612525565b6040516101589190615039565b6102a66102d7366004614d52565b61278c565b6101946102ea366004614c8a565b612845565b6102f76145ca565b81600160a060020a03811661032a5760405160e560020a62461bcd028152600401610321906150af565b60405180910390fd5b600160a060020a03818116600090815260016020526040902060030154166103675760405160e560020a62461bcd028152600401610321906150e6565b600160a060020a038116600090815260016020819052604090912001805461042691906103939061511d565b80601f01602080910402602001604051908101604052809291908181526020018280546103bf9061511d565b801561040c5780601f106103e15761010080835404028352916020019161040c565b820191906000526020600020905b8154815290600101906020018083116103ef57829003601f168201915b505050505060405180602001604052806000815250612a5a565b156104465760405160e560020a62461bcd02815260040161032190615154565b61044f83612ab4565b91505b50919050565b610460614619565b600160a060020a0380831660009081526003602052604090206002015483911661049f5760405160e560020a62461bcd0281526004016103219061518b565b600160a060020a03808216600081815260036020526040902060020154909116146104df5760405160e560020a62461bcd0281526004016103219061518b565b6000600160a060020a03821660009081526003602052604090206004015462010000900460ff16600181111561051757610517614831565b146105375760405160e560020a62461bcd028152600401610321906151c2565b61044f83612cd3565b33600081815260036020526040902060020154600160a060020a031661057b5760405160e560020a62461bcd0281526004016103219061518b565b600160a060020a03808216600081815260036020526040902060020154909116146105bb5760405160e560020a62461bcd0281526004016103219061518b565b6000600160a060020a03821660009081526003602052604090206004015462010000900460ff1660018111156105f3576105f3614831565b146106135760405160e560020a62461bcd028152600401610321906151c2565b600061061f3385612f6b565b905061062a81612fb3565b6106795760405160e560020a62461bcd02815260206004820152601160248201527f4b594320726571206e6f7420666f756e640000000000000000000000000000006044820152606401610321565b610682846130cf565b6106d15760405160e560020a62461bcd02815260206004820152600e60248201527f55736572206e6f7420666f756e640000000000000000000000000000000000006044820152606401610321565b60006007826040516106e391906151f9565b908152604051908190036020019020600701805461ff00191661010083600281111561071157610711614831565b02179055508260078260405161072791906151f9565b908152602001604051809103902060080190816107449190615266565b507f524a348eaa0159a5bd9d05667fe8d01e3fef50369ae5f27c2ade107c84bfeaf78160078360405161077791906151f9565b908152602001604051809103902060040160078460405161079891906151f9565b90815260200160405180910390206002016040516107b8939291906153a8565b60405180910390a150505050565b600454600160a060020a031633146107f35760405160e560020a62461bcd028152600401610321906153e1565b6107fc8161318d565b6040805160a08101825282518152602080840151818301528383018051600160a060020a0390811684860152600160608501526000608085018190529151168152600690915291909120815181906108549082615266565b50602082015160018201906108699082615266565b50604082015160028083018054600160a060020a03909316600160a060020a0319841681178255606086015193919274ffffffffffffffffffffffffffffffffffffffffff199092161790740100000000000000000000000000000000000000009084908111156108dc576108dc614831565b0217905550608082015160028201805475ff0000000000000000000000000000000000000000001916750100000000000000000000000000000000000000000083600181111561092e5761092e614831565b0217905550505060400151600580546001810182556000919091527f036b6384b5eca791c62761152d0c79bb0604c104a5fb6f4eb0703f3154bb3db0018054600160a060020a031916600160a060020a03909216919091179055565b6000610994614619565b61099c61464b565b33806109bd5760405160e560020a62461bcd028152600401610321906150af565b600160a060020a03818116600090815260016020526040902060030154166109fa5760405160e560020a62461bcd028152600401610321906150e6565b600160a060020a0381166000908152600160208190526040909120018054610a2691906103939061511d565b15610a465760405160e560020a62461bcd02815260040161032190615154565b600160a060020a03808616600090815260036020526040902060020154869116610a855760405160e560020a62461bcd0281526004016103219061518b565b600160a060020a0380821660008181526003602052604090206002015490911614610ac55760405160e560020a62461bcd0281526004016103219061518b565b6000600160a060020a03821660009081526003602052604090206004015462010000900460ff166001811115610afd57610afd614831565b14610b1d5760405160e560020a62461bcd028152600401610321906151c2565b6000610b27614619565b610b2f61464b565b33600090815260096020908152604080832080548251818502810185019093528083529192909190830182828015610b9057602002820191906000526020600020905b8154600160a060020a03168152600190910190602001808311610b72575b5050505050905060005b8151811015610fa4578a600160a060020a0316828281518110610bbf57610bbf615418565b6020026020010151600160a060020a031603610f9c5760019450610be28b612cd3565b93506007610bf08c33612f6b565b604051610bfd91906151f9565b908152602001604051809103902060405180610140016040529081600082018054610c279061511d565b80601f0160208091040260200160405190810160405280929190818152602001828054610c539061511d565b8015610ca05780601f10610c7557610100808354040283529160200191610ca0565b820191906000526020600020905b815481529060010190602001808311610c8357829003601f168201915b50505091835250506001820154600160a060020a03166020820152600282018054604090920191610cd09061511d565b80601f0160208091040260200160405190810160405280929190818152602001828054610cfc9061511d565b8015610d495780601f10610d1e57610100808354040283529160200191610d49565b820191906000526020600020905b815481529060010190602001808311610d2c57829003601f168201915b50505091835250506003820154600160a060020a03166020820152600482018054604090920191610d799061511d565b80601f0160208091040260200160405190810160405280929190818152602001828054610da59061511d565b8015610df25780601f10610dc757610100808354040283529160200191610df2565b820191906000526020600020905b815481529060010190602001808311610dd557829003601f168201915b50505050508152602001600582018054610e0b9061511d565b80601f0160208091040260200160405190810160405280929190818152602001828054610e379061511d565b8015610e845780601f10610e5957610100808354040283529160200191610e84565b820191906000526020600020905b815481529060010190602001808311610e6757829003601f168201915b505050918352505060068201546020820152600782015460409091019060ff166002811115610eb557610eb5614831565b6002811115610ec657610ec6614831565b81526020016007820160019054906101000a900460ff166002811115610eee57610eee614831565b6002811115610eff57610eff614831565b8152602001600882018054610f139061511d565b80601f0160208091040260200160405190810160405280929190818152602001828054610f3f9061511d565b8015610f8c5780601f10610f6157610100808354040283529160200191610f8c565b820191906000526020600020905b815481529060010190602001808311610f6f57829003601f168201915b5050505050815250509250610fa4565b600101610b9a565b5092999198509650945050505050565b3380610fd55760405160e560020a62461bcd028152600401610321906150af565b600160a060020a03818116600090815260016020526040902060030154166110125760405160e560020a62461bcd028152600401610321906150e6565b600160a060020a038116600090815260016020819052604090912001805461103e91906103939061511d565b1561105e5760405160e560020a62461bcd02815260040161032190615154565b600160a060020a0380851660009081526003602052604090206002015485911661109d5760405160e560020a62461bcd0281526004016103219061518b565b600160a060020a03808216600081815260036020526040902060020154909116146110dd5760405160e560020a62461bcd0281526004016103219061518b565b6000600160a060020a03821660009081526003602052604090206004015462010000900460ff16600181111561111557611115614831565b146111355760405160e560020a62461bcd028152600401610321906151c2565b60006111418633612f6b565b905061114c81612fb3565b61119b5760405160e560020a62461bcd02815260206004820152601960248201527f5573657220646f65736e27742068617665204b594320726571000000000000006044820152606401610321565b600085156111ab575060016111af565b5060025b806007836040516111c091906151f9565b908152604051908190036020019020600701805461ff0019166101008360028111156111ee576111ee614831565b02179055508460078360405161120491906151f9565b908152602001604051809103902060080190816112219190615266565b507f9a3f3f9de5ac964f84f08c6124f7b844ffd73de3fd4b472eb59f6b68e5729a81823389846040516112579493929190615431565b60405180910390a150505050505050565b600454600160a060020a031633146112955760405160e560020a62461bcd028152600401610321906153e1565b6112a0838383613360565b600160a060020a03831660009081526006602052604090206112c28282615266565b50600160a060020a03831660009081526006602052604090206001016112e88382615266565b50505050565b338061130f5760405160e560020a62461bcd028152600401610321906150af565b600160a060020a038181166000908152600160205260409020600301541661134c5760405160e560020a62461bcd028152600401610321906150e6565b600160a060020a038116600090815260016020819052604090912001805461137891906103939061511d565b156113985760405160e560020a62461bcd02815260040161032190615154565b60006113a48433612f6b565b90506113af81612fb3565b6113fe5760405160e560020a62461bcd02815260206004820152601460248201527f5065726d697373696f6e206e6f7420666f756e640000000000000000000000006044820152606401610321565b600260078260405161141091906151f9565b908152604051908190036020019020600701805461ff00191661010083600281111561143e5761143e614831565b02179055508260078260405161145491906151f9565b908152602001604051809103902060080190816114719190615266565b507f9a3f3f9de5ac964f84f08c6124f7b844ffd73de3fd4b472eb59f6b68e5729a8181338660026040516107b89493929190615431565b600454600090606090600160a060020a031633146114db5760405160e560020a62461bcd028152600401610321906153e1565b6114e483613426565b91509150915091565b60006114f76145ca565b6114ff61464b565b83600160a060020a0381166115295760405160e560020a62461bcd028152600401610321906150af565b600160a060020a03818116600090815260016020526040902060030154166115665760405160e560020a62461bcd028152600401610321906150e6565b600160a060020a038116600090815260016020819052604090912001805461159291906103939061511d565b156115b25760405160e560020a62461bcd02815260040161032190615154565b33600081815260036020526040902060020154600160a060020a03166115ed5760405160e560020a62461bcd0281526004016103219061518b565b600160a060020a038082166000818152600360205260409020600201549091161461162d5760405160e560020a62461bcd0281526004016103219061518b565b6000600160a060020a03821660009081526003602052604090206004015462010000900460ff16600181111561166557611665614831565b146116855760405160e560020a62461bcd028152600401610321906151c2565b600061168f6145ca565b61169761464b565b336000908152600860209081526040918290208054835181840281018401909452808452611708938d93909291908301828280156116fe57602002820191906000526020600020905b8154600160a060020a031681526001909101906020018083116116e0575b50505050506137da565b90935091508215611ac757600761171f338b612f6b565b60405161172c91906151f9565b9081526020016040518091039020604051806101400160405290816000820180546117569061511d565b80601f01602080910402602001604051908101604052809291908181526020018280546117829061511d565b80156117cf5780601f106117a4576101008083540402835291602001916117cf565b820191906000526020600020905b8154815290600101906020018083116117b257829003601f168201915b50505091835250506001820154600160a060020a031660208201526002820180546040909201916117ff9061511d565b80601f016020809104026020016040519081016040528092919081815260200182805461182b9061511d565b80156118785780601f1061184d57610100808354040283529160200191611878565b820191906000526020600020905b81548152906001019060200180831161185b57829003601f168201915b50505091835250506003820154600160a060020a031660208201526004820180546040909201916118a89061511d565b80601f01602080910402602001604051908101604052809291908181526020018280546118d49061511d565b80156119215780601f106118f657610100808354040283529160200191611921565b820191906000526020600020905b81548152906001019060200180831161190457829003601f168201915b5050505050815260200160058201805461193a9061511d565b80601f01602080910402602001604051908101604052809291908181526020018280546119669061511d565b80156119b35780601f10611988576101008083540402835291602001916119b3565b820191906000526020600020905b81548152906001019060200180831161199657829003601f168201915b505050918352505060068201546020820152600782015460409091019060ff1660028111156119e4576119e4614831565b60028111156119f5576119f5614831565b81526020016007820160019054906101000a900460ff166002811115611a1d57611a1d614831565b6002811115611a2e57611a2e614831565b8152602001600882018054611a429061511d565b80601f0160208091040260200160405190810160405280929190818152602001828054611a6e9061511d565b8015611abb5780601f10611a9057610100808354040283529160200191611abb565b820191906000526020600020905b815481529060010190602001808311611a9e57829003601f168201915b50505050508152505090505b91989097509095509350505050565b33600081815260036020526040902060020154600160a060020a0316611b115760405160e560020a62461bcd0281526004016103219061518b565b600160a060020a0380821660008181526003602052604090206002015490911614611b515760405160e560020a62461bcd0281526004016103219061518b565b6000600160a060020a03821660009081526003602052604090206004015462010000900460ff166001811115611b8957611b89614831565b14611ba95760405160e560020a62461bcd028152600401610321906151c2565b6000611bb9338660600151612f6b565b9050611bc481612fb3565b15611c145760405160e560020a62461bcd02815260206004820152601160248201527f5573657220686164206b7963207265712e0000000000000000000000000000006044820152606401610321565b6040518061014001604052808281526020018660600151600160a060020a031681526020018660000151815260200133600160a060020a03168152602001611c5b33612cd3565b51815260a0870151602082015260408101869052606001600081526020016000815260200184815250600782604051611c9491906151f9565b90815260405190819003602001902081518190611cb19082615266565b506020820151600182018054600160a060020a031916600160a060020a0390921691909117905560408201516002820190611cec9082615266565b506060820151600382018054600160a060020a031916600160a060020a0390921691909117905560808201516004820190611d279082615266565b5060a08201516005820190611d3c9082615266565b5060c0820151600682015560e082015160078201805460ff19166001836002811115611d6a57611d6a614831565b0217905550610100828101516007830180549192909161ff00191690836002811115611d9857611d98614831565b02179055506101208201516008820190611db29082615266565b505033600081815260086020908152604080832060608b018051825460018181018555938752858720018054600160a060020a03928316600160a060020a031991821617909155915116855260098452828520805492830181558552929093209092018054909116909217909155517f1c9ca7942139211bfb75ec030ee95c38e96f4eb7d755b28d3eede55f8d5eb86d91508290600790611e549083906151f9565b9081526040519081900360200181208851611e759392600490920191615475565b60405180910390a1611e8a85606001516130cf565b61204457611e9785613a69565b6040518060a0016040528086600001518152602001866020015181526020018660600151600160a060020a03168152602001600280811115611edb57611edb614831565b8152602001600090526060860151600160a060020a0316600090815260066020526040902081518190611f0e9082615266565b5060208201516001820190611f239082615266565b50604082015160028083018054600160a060020a03909316600160a060020a0319841681178255606086015193919274ffffffffffffffffffffffffffffffffffffffffff19909216179074010000000000000000000000000000000000000000908490811115611f9657611f96614831565b0217905550608082015160028201805475ff00000000000000000000000000000000000000000019167501000000000000000000000000000000000000000000836001811115611fe857611fe8614831565b021790555050506060850151600580546001810182556000919091527f036b6384b5eca791c62761152d0c79bb0604c104a5fb6f4eb0703f3154bb3db0018054600160a060020a031916600160a060020a039092169190911790555b5050505050565b338061206c5760405160e560020a62461bcd028152600401610321906150af565b600160a060020a03818116600090815260016020526040902060030154166120a95760405160e560020a62461bcd028152600401610321906150e6565b600160a060020a03811660009081526001602081905260409091200180546120d591906103939061511d565b156120f55760405160e560020a62461bcd02815260040161032190615154565b612100848484613b9e565b3360009081526006602052604090206121198582615266565b503360009081526006602052604090206001016120448482615266565b33806121575760405160e560020a62461bcd028152600401610321906150af565b600160a060020a03818116600090815260016020526040902060030154166121945760405160e560020a62461bcd028152600401610321906150e6565b600160a060020a03811660009081526001602081905260409091200180546121c091906103939061511d565b156121e05760405160e560020a62461bcd02815260040161032190615154565b6121ea8383613c1d565b3360009081526009602090815260408083208054825181850281018501909352808352919290919083018282801561224b57602002820191906000526020600020905b8154600160a060020a0316815260019091019060200180831161222d575b5050505050905060005b815181101561204457600061228383838151811061227557612275615418565b602002602001015133612f6b565b905061228e81612fb3565b1561239057856007826040516122a491906151f9565b908152602001604051809103902060050190816122c19190615266565b50846007826040516122d391906151f9565b90815260200160405180910390206006018190555060006007826040516122fa91906151f9565b908152604051908190036020019020600701805460ff1916600183600281111561232657612326614831565b02179055506040518060400160405280601381526020017f5570646174656420616c6c206d7920646f63730000000000000000000000000081525060078260405161237191906151f9565b9081526020016040518091039020600801908161238e9190615266565b505b50600101612255565b600454600160a060020a031633146123c65760405160e560020a62461bcd028152600401610321906153e1565b6123d08282613c8f565b600160a060020a0383166000908152600660205260409020600201805475ff0000000000000000000000000000000000000000001916750100000000000000000000000000000000000000000083600181111561242f5761242f614831565b02179055505050565b336000818152600360205260408120600201549091606091600160a060020a03166124785760405160e560020a62461bcd0281526004016103219061518b565b600160a060020a03808216600081815260036020526040902060020154909116146124b85760405160e560020a62461bcd0281526004016103219061518b565b6000600160a060020a03821660009081526003602052604090206004015462010000900460ff1660018111156124f0576124f0614831565b146125105760405160e560020a62461bcd028152600401610321906151c2565b61251b846001613e5d565b9250925050915091565b61252d6146c1565b3361257d5760405160e560020a62461bcd02815260206004820152600f60248201527f53656e64657220496420456d70747900000000000000000000000000000000006044820152606401610321565b33600090815260066020526040902060020154600160a060020a03166125b85760405160e560020a62461bcd028152600401610321906150e6565b3360009081526006602052604090819020815160a081019092528054829082906125e19061511d565b80601f016020809104026020016040519081016040528092919081815260200182805461260d9061511d565b801561265a5780601f1061262f5761010080835404028352916020019161265a565b820191906000526020600020905b81548152906001019060200180831161263d57829003601f168201915b505050505081526020016001820180546126739061511d565b80601f016020809104026020016040519081016040528092919081815260200182805461269f9061511d565b80156126ec5780601f106126c1576101008083540402835291602001916126ec565b820191906000526020600020905b8154815290600101906020018083116126cf57829003601f168201915b5050509183525050600282810154600160a060020a038116602084015260409092019174010000000000000000000000000000000000000000900460ff169081111561273a5761273a614831565b600281111561274b5761274b614831565b81526020016002820160159054906101000a900460ff16600181111561277357612773614831565b600181111561278457612784614831565b905250919050565b6000606033806127b15760405160e560020a62461bcd028152600401610321906150af565b600160a060020a03818116600090815260016020526040902060030154166127ee5760405160e560020a62461bcd028152600401610321906150e6565b600160a060020a038116600090815260016020819052604090912001805461281a91906103939061511d565b1561283a5760405160e560020a62461bcd02815260040161032190615154565b61251b846000613e5d565b33600081815260036020526040902060020154600160a060020a03166128805760405160e560020a62461bcd0281526004016103219061518b565b600160a060020a03808216600081815260036020526040902060020154909116146128c05760405160e560020a62461bcd0281526004016103219061518b565b6000600160a060020a03821660009081526003602052604090206004015462010000900460ff1660018111156128f8576128f8614831565b146129185760405160e560020a62461bcd028152600401610321906151c2565b60006129243386612f6b565b905061292f81612fb3565b61297e5760405160e560020a62461bcd02815260206004820152601960248201527f5573657220646f65736e27742068617665204b594320726571000000000000006044820152606401610321565b600084156129a05750600161299233614433565b61299b866144a5565b6129a4565b5060025b806007836040516129b591906151f9565b908152604051908190036020019020600701805460ff191660018360028111156129e1576129e1614831565b0217905550836007836040516129f791906151f9565b90815260200160405180910390206008019081612a149190615266565b507f900b83a690e29ff7d6e76e350983afea30403d6c47fe8ce52045fb20074c79a082873384604051612a4a9493929190615431565b60405180910390a1505050505050565b600081604051602001612a6d91906151f9565b6040516020818303038152906040528051906020012083604051602001612a9491906151f9565b604051602081830303815290604052805190602001201490505b92915050565b612abc6145ca565b600160a060020a03821660009081526001602052604090819020815160e08101909252805482908290612aee9061511d565b80601f0160208091040260200160405190810160405280929190818152602001828054612b1a9061511d565b8015612b675780601f10612b3c57610100808354040283529160200191612b67565b820191906000526020600020905b815481529060010190602001808311612b4a57829003601f168201915b50505050508152602001600182018054612b809061511d565b80601f0160208091040260200160405190810160405280929190818152602001828054612bac9061511d565b8015612bf95780601f10612bce57610100808354040283529160200191612bf9565b820191906000526020600020905b815481529060010190602001808311612bdc57829003601f168201915b5050509183525050600282015460208201526003820154600160a060020a0390811660408301526004830154166060820152600582018054608090920191612c409061511d565b80601f0160208091040260200160405190810160405280929190818152602001828054612c6c9061511d565b8015612cb95780601f10612c8e57610100808354040283529160200191612cb9565b820191906000526020600020905b815481529060010190602001808311612c9c57829003601f168201915b505050505081526020016006820154815250509050919050565b612cdb614619565b600160a060020a038216612d345760405160e560020a62461bcd02815260206004820152600d60248201527f42616e6b20496420456d707479000000000000000000000000000000000000006044820152606401610321565b600160a060020a03821660009081526003602052604090819020815160c08101909252805482908290612d669061511d565b80601f0160208091040260200160405190810160405280929190818152602001828054612d929061511d565b8015612ddf5780601f10612db457610100808354040283529160200191612ddf565b820191906000526020600020905b815481529060010190602001808311612dc257829003601f168201915b50505050508152602001600182018054612df89061511d565b80601f0160208091040260200160405190810160405280929190818152602001828054612e249061511d565b8015612e715780601f10612e4657610100808354040283529160200191612e71565b820191906000526020600020905b815481529060010190602001808311612e5457829003601f168201915b50505091835250506002820154600160a060020a03166020820152600382018054604090920191612ea19061511d565b80601f0160208091040260200160405190810160405280929190818152602001828054612ecd9061511d565b8015612f1a5780601f10612eef57610100808354040283529160200191612f1a565b820191906000526020600020905b815481529060010190602001808311612efd57829003601f168201915b5050509183525050600482015461ffff8116602083015260409091019062010000900460ff166001811115612f5157612f51614831565b6001811115612f6257612f62614831565b90525092915050565b6040516c01000000000000000000000000600160a060020a03808516820260208401528316026034820152606090604801604051602081830303815290604052905092915050565b6000612fce8260405180602001604052806000815250612a5a565b1561301e5760405160e560020a62461bcd02815260206004820152601060248201527f5265717565737420496420656d707479000000000000000000000000000000006044820152606401610321565b612aae60078360405161303191906151f9565b908152604051908190036020019020805461304b9061511d565b80601f01602080910402602001604051908101604052809291908181526020018280546130779061511d565b80156130c45780601f10613099576101008083540402835291602001916130c4565b820191906000526020600020905b8154815290600101906020018083116130a757829003601f168201915b505050505083612a5a565b6000600160a060020a03821661312a5760405160e560020a62461bcd02815260206004820152600b60248201527f496420697320656d7074790000000000000000000000000000000000000000006044820152606401610321565b600160a060020a03828116600090815260016020526040902060030154161580159061317f5750600160a060020a038216600090815260016020819052604090912001805461317d91906103939061511d565b155b15613188575060015b919050565b604080820151600160a060020a0390811660009081526003602052919091206002015416156132015760405160e560020a62461bcd02815260206004820152600b60248201527f42616e6b206578697374730000000000000000000000000000000000000000006044820152606401610321565b604080820151600160a060020a031660009081526003602052208151829190819061322c9082615266565b50602082015160018201906132419082615266565b506040820151600282018054600160a060020a031916600160a060020a039092169190911790556060820151600382019061327c9082615266565b50608082015160048201805461ffff90921661ffff1983168117825560a08501519262ffffff191617620100008360018111156132bb576132bb614831565b0217905550505060408181018051600280546001810182556000919091527f405787fa12a823e0f2b7631cc41b3ba8828b3321ca811111fa75cd3aa3bb5ace018054600160a060020a031916600160a060020a039092169190911790555182516020840151606085015193517f17ee33cc6a54067d735ee1c9200fc0dc8354b1d7deae9908692bcd90723044b194613355949392916154ae565b60405180910390a150565b600160a060020a038381166000908152600360205260409020600201541661339d5760405160e560020a62461bcd0281526004016103219061518b565b600160a060020a03831660009081526003602052604090206133bf8282615266565b50600160a060020a03831660009081526003602052604090206001016133e58382615266565b507fc0e694475d9755514453a459373ded91f1517029faca54000da1c3007ec2c4f983828460405161341993929190615501565b60405180910390a1505050565b600060606000831161347d5760405160e560020a62461bcd02815260206004820152601060248201527f504e2073686f756c64206265203e2030000000000000000000000000000000006044820152606401610321565b6000806000806134e78760028054806020026020016040519081016040528092919081815260200182805480156134dd57602002820191906000526020600020905b8154600160a060020a031681526001909101906020018083116134bf575b505050505061452a565b935093509350935060008367ffffffffffffffff81111561350a5761350a6148f7565b60405190808252806020026020018201604052801561354357816020015b613530614619565b8152602001906001900390816135285790505b509050825b828110156137cb57600360006002838154811061356757613567615418565b6000918252602080832090910154600160a060020a031683528201929092526040908101909120815160c081019092528054829082906135a69061511d565b80601f01602080910402602001604051908101604052809291908181526020018280546135d29061511d565b801561361f5780601f106135f45761010080835404028352916020019161361f565b820191906000526020600020905b81548152906001019060200180831161360257829003601f168201915b505050505081526020016001820180546136389061511d565b80601f01602080910402602001604051908101604052809291908181526020018280546136649061511d565b80156136b15780601f10613686576101008083540402835291602001916136b1565b820191906000526020600020905b81548152906001019060200180831161369457829003601f168201915b50505091835250506002820154600160a060020a031660208201526003820180546040909201916136e19061511d565b80601f016020809104026020016040519081016040528092919081815260200182805461370d9061511d565b801561375a5780601f1061372f5761010080835404028352916020019161375a565b820191906000526020600020905b81548152906001019060200180831161373d57829003601f168201915b5050509183525050600482015461ffff8116602083015260409091019062010000900460ff16600181111561379157613791614831565b60018111156137a2576137a2614831565b815250508282815181106137b8576137b8615418565b6020908102919091010152600101613548565b50939793965092945050505050565b60006137e46145ca565b60006137ee6145ca565b60005b8551811015613a5d5786600160a060020a031686828151811061381657613816615418565b6020026020010151600160a060020a031603613a5557600192506001600088600160a060020a0316600160a060020a031681526020019081526020016000206040518060e00160405290816000820180546138709061511d565b80601f016020809104026020016040519081016040528092919081815260200182805461389c9061511d565b80156138e95780601f106138be576101008083540402835291602001916138e9565b820191906000526020600020905b8154815290600101906020018083116138cc57829003601f168201915b505050505081526020016001820180546139029061511d565b80601f016020809104026020016040519081016040528092919081815260200182805461392e9061511d565b801561397b5780601f106139505761010080835404028352916020019161397b565b820191906000526020600020905b81548152906001019060200180831161395e57829003601f168201915b5050509183525050600282015460208201526003820154600160a060020a03908116604083015260048301541660608201526005820180546080909201916139c29061511d565b80601f01602080910402602001604051908101604052809291908181526020018280546139ee9061511d565b8015613a3b5780601f10613a1057610100808354040283529160200191613a3b565b820191906000526020600020905b815481529060010190602001808311613a1e57829003601f168201915b505050505081526020016006820154815250509150613a5d565b6001016137f1565b50909590945092505050565b6060810151600160a060020a0316600090815260016020526040902081518291908190613a969082615266565b5060208201516001820190613aab9082615266565b50604082015160028201556060820151600382018054600160a060020a03928316600160a060020a031991821617909155608084015160048401805491909316911617905560a08201516005820190613b049082615266565b5060c09190910151600690910155606081018051600080546001810182559080527f290decd9548b62a8d60345a988386fc84ba6bc95484008f6362f93160ef3e563018054600160a060020a031916600160a060020a0390921691909117905551815160208301516040517f77eacb4962819f791ebd2750d7be9519622ddcf4c37fe09c6fd33ace5ce32ccb936133559390929091615501565b336000908152600160205260409020613bb78482615266565b5033600090815260016020819052604090912001613bd58382615266565b503360008181526001602052604090819020600201839055517fcfc84fa73e8500b1f994b7616fda16714aa77352defd398c17f8dda41cc92195916134199186908690615501565b336000908152600160205260409020600501613c398382615266565b5033600081815260016020526040908190206006810184905590517f844d9124dad5a413c4b99664397291f93f1e89513cd8c3a68674c050283c556192613c839290918690615535565b60405180910390a15050565b600160a060020a03828116600090815260036020526040812060020154909116613cce5760405160e560020a62461bcd0281526004016103219061518b565b818015613d1057506001600160a060020a03841660009081526003602052604090206004015462010000900460ff166001811115613d0e57613d0e614831565b145b15613d7d57600160a060020a0383166000908152600360205260409081902060048101805462ff00001916905590517fbbb85d77e85c02977b28ba58175443b7d9c020551c53482ea6df5fe2e1cb884391613d6d91869190615557565b60405180910390a1506000612aae565b81158015613dc057506000600160a060020a03841660009081526003602052604090206004015462010000900460ff166001811115613dbe57613dbe614831565b145b15613e3257600160a060020a0383166000908152600360205260409081902060048101805462ff000019166201000017905590517fe2914c072e85a93716aea3154e8dc2a6d4f9a823930697852b892fe10bd598f891613e2291869190615557565b60405180910390a1506001612aae565b50600160a060020a03821660009081526003602052604090206004015462010000900460ff16612aae565b6000606060008411613eb45760405160e560020a62461bcd02815260206004820152601360248201527f504e2073686f756c64206265203e207a65726f000000000000000000000000006044820152606401610321565b600080600080613f438888613ed757336000908152600960205260409020613ee7565b3360009081526008602052604090205b8054806020026020016040519081016040528092919081815260200182805480156134dd57602002820191906000526020600020908154600160a060020a031681526001909101906020018083116134bf57505050505061452a565b935093509350935060008367ffffffffffffffff811115613f6657613f666148f7565b604051908082528060200260200182016040528015613f9f57816020015b613f8c61464b565b815260200190600190039081613f845790505b509050825b828110156144235788614014573360009081526009602052604090208054600791613ff49184908110613fd957613fd9615418565b600091825260209091200154600160a060020a031633612f6b565b60405161400191906151f9565b9081526020016040518091039020614074565b33600081815260086020526040902080546007926140589290918590811061403e5761403e615418565b600091825260209091200154600160a060020a0316612f6b565b60405161406591906151f9565b90815260200160405180910390205b604051806101400160405290816000820180546140909061511d565b80601f01602080910402602001604051908101604052809291908181526020018280546140bc9061511d565b80156141095780601f106140de57610100808354040283529160200191614109565b820191906000526020600020905b8154815290600101906020018083116140ec57829003601f168201915b50505091835250506001820154600160a060020a031660208201526002820180546040909201916141399061511d565b80601f01602080910402602001604051908101604052809291908181526020018280546141659061511d565b80156141b25780601f10614187576101008083540402835291602001916141b2565b820191906000526020600020905b81548152906001019060200180831161419557829003601f168201915b50505091835250506003820154600160a060020a031660208201526004820180546040909201916141e29061511d565b80601f016020809104026020016040519081016040528092919081815260200182805461420e9061511d565b801561425b5780601f106142305761010080835404028352916020019161425b565b820191906000526020600020905b81548152906001019060200180831161423e57829003601f168201915b505050505081526020016005820180546142749061511d565b80601f01602080910402602001604051908101604052809291908181526020018280546142a09061511d565b80156142ed5780601f106142c2576101008083540402835291602001916142ed565b820191906000526020600020905b8154815290600101906020018083116142d057829003601f168201915b505050918352505060068201546020820152600782015460409091019060ff16600281111561431e5761431e614831565b600281111561432f5761432f614831565b81526020016007820160019054906101000a900460ff16600281111561435757614357614831565b600281111561436857614368614831565b815260200160088201805461437c9061511d565b80601f01602080910402602001604051908101604052809291908181526020018280546143a89061511d565b80156143f55780601f106143ca576101008083540402835291602001916143f5565b820191906000526020600020905b8154815290600101906020018083116143d857829003601f168201915b50505050508152505082828151811061441057614410615418565b6020908102919091010152600101613fa4565b5093989397509295505050505050565b600160a060020a03811661445c5760405160e560020a62461bcd0281526004016103219061518b565b600160a060020a0381166000908152600360205260408120600401805461ffff16916144878361559a565b91906101000a81548161ffff021916908361ffff1602179055505050565b600160a060020a0381166144fe5760405160e560020a62461bcd02815260206004820152601160248201527f437573746f6d657220496420456d7074790000000000000000000000000000006044820152606401610321565b600160a060020a031660009081526001602052604090206004018054600160a060020a03191633179055565b60008060008060006019865161454091906155d4565b90506019865161455091906155e8565b945080156145665784614562816155fc565b9550505b60199350614575600188615615565b614580906019615628565b925061458d876019615628565b9150848711156145a45760009350600091506145c0565b84871480156145b35750600081115b156145c057809350855191505b5092959194509250565b6040518060e001604052806060815260200160608152602001600081526020016000600160a060020a031681526020016000600160a060020a0316815260200160608152602001600081525090565b6040805160c081018252606080825260208201819052600092820183905280820152608081018290529060a082015290565b604051806101400160405280606081526020016000600160a060020a03168152602001606081526020016000600160a060020a03168152602001606081526020016060815260200160008152602001600060028111156146ad576146ad614831565b815260200160008152602001606081525090565b6040518060a0016040528060608152602001606081526020016000600160a060020a03168152602001600060028111156146fd576146fd614831565b81526020016000905290565b8035600160a060020a038116811461318857600080fd5b60006020828403121561473257600080fd5b61473b82614709565b9392505050565b60005b8381101561475d578181015183820152602001614745565b50506000910152565b6000815180845261477e816020860160208601614742565b601f01601f19169290920160200192915050565b6000815160e084526147a760e0850182614766565b9050602083015184820360208601526147c08282614766565b915050604083015160408501526060830151600160a060020a038082166060870152806080860151166080870152505060a083015184820360a08601526148078282614766565b91505060c083015160c08501528091505092915050565b60208152600061473b6020830184614792565b60e060020a634e487b7102600052602160045260246000fd5b6002811061485a5761485a614831565b9052565b6000815160c0845261487360c0850182614766565b90506020830151848203602086015261488c8282614766565b915050600160a060020a036040840151166040850152606083015184820360608601526148b98282614766565b91505061ffff608084015116608085015260a08301516148dc60a086018261484a565b509392505050565b60208152600061473b602083018461485e565b60e060020a634e487b7102600052604160045260246000fd5b60405160c0810167ffffffffffffffff81118282101715614933576149336148f7565b60405290565b60405160e0810167ffffffffffffffff81118282101715614933576149336148f7565b600082601f83011261496d57600080fd5b813567ffffffffffffffff80821115614988576149886148f7565b604051601f8301601f19908116603f011681019082821181831017156149b0576149b06148f7565b816040528381528660208588010111156149c957600080fd5b836020870160208301376000602085830101528094505050505092915050565b600080604083850312156149fc57600080fd5b614a0583614709565b9150602083013567ffffffffffffffff811115614a2157600080fd5b614a2d8582860161495c565b9150509250929050565b803561ffff8116811461318857600080fd5b80356002811061318857600080fd5b600060208284031215614a6a57600080fd5b813567ffffffffffffffff80821115614a8257600080fd5b9083019060c08286031215614a9657600080fd5b614a9e614910565b823582811115614aad57600080fd5b614ab98782860161495c565b825250602083013582811115614ace57600080fd5b614ada8782860161495c565b602083015250614aec60408401614709565b6040820152606083013582811115614b0357600080fd5b614b0f8782860161495c565b606083015250614b2160808401614a37565b6080820152614b3260a08401614a49565b60a082015295945050505050565b60038110614b5057614b50614831565b50565b61485a81614b40565b60006101408251818552614b7282860182614766565b9150506020830151614b8f6020860182600160a060020a03169052565b5060408301518482036040860152614ba78282614766565b9150506060830151614bc46060860182600160a060020a03169052565b5060808301518482036080860152614bdc8282614766565b91505060a083015184820360a0860152614bf68282614766565b91505060c083015160c085015260e0830151614c1560e0860182614b53565b5061010080840151614c2982870182614b53565b50506101208084015185830382870152614c438382614766565b9695505050505050565b8315158152606060208201526000614c68606083018561485e565b8281036040840152614c438185614b5c565b8035801515811461318857600080fd5b600080600060608486031215614c9f57600080fd5b614ca884614709565b9250614cb660208501614c7a565b9150604084013567ffffffffffffffff811115614cd257600080fd5b614cde8682870161495c565b9150509250925092565b600080600060608486031215614cfd57600080fd5b614d0684614709565b9250602084013567ffffffffffffffff80821115614d2357600080fd5b614d2f8783880161495c565b93506040860135915080821115614d4557600080fd5b50614cde8682870161495c565b600060208284031215614d6457600080fd5b5035919050565b60006040820184835260206040602085015281855180845260608601915060606020820287010193506020870160005b82811015614dc957605f19888703018452614db786835161485e565b95509284019290840190600101614d9b565b509398975050505050505050565b8315158152606060208201526000614c686060830185614792565b600080600060608486031215614e0757600080fd5b833567ffffffffffffffff80821115614e1f57600080fd5b9085019060e08288031215614e3357600080fd5b614e3b614939565b823582811115614e4a57600080fd5b614e568982860161495c565b825250602083013582811115614e6b57600080fd5b614e778982860161495c565b60208301525060408301356040820152614e9360608401614709565b6060820152614ea460808401614709565b608082015260a083013582811115614ebb57600080fd5b614ec78982860161495c565b60a08301525060c083013560c082015280955050602086013593506040860135915080821115614d4557600080fd5b600080600060608486031215614f0b57600080fd5b833567ffffffffffffffff80821115614f2357600080fd5b614f2f8783880161495c565b94506020860135915080821115614f4557600080fd5b50614f528682870161495c565b925050604084013590509250925092565b60008060408385031215614f7657600080fd5b823567ffffffffffffffff811115614f8d57600080fd5b614f998582860161495c565b95602094909401359450505050565b60008060408385031215614fbb57600080fd5b614fc483614709565b9150614fd260208401614c7a565b90509250929050565b60006040820184835260206040602085015281855180845260608601915060606020820287010193506020870160005b82811015614dc957605f19888703018452615027868351614b5c565b9550928401929084019060010161500b565b602081526000825160a0602084015261505560c0840182614766565b90506020840151601f198483030160408501526150728282614766565b915050600160a060020a036040850151166060840152606084015161509681614b40565b8060808501525060808401516148dc60a085018261484a565b6020808252600b908201527f496420697320456d707479000000000000000000000000000000000000000000604082015260600190565b6020808252600d908201527f5573657220496420456d70747900000000000000000000000000000000000000604082015260600190565b60028104600182168061513157607f821691505b6020821081036104525760e060020a634e487b7102600052602260045260246000fd5b60208082526010908201527f5573657220456d61696c20456d70747900000000000000000000000000000000604082015260600190565b6020808252600e908201527f42616e6b206e6f7420666f756e64000000000000000000000000000000000000604082015260600190565b60208082526012908201527f42616e6b206973206e6f74206163746976650000000000000000000000000000604082015260600190565b6000825161520b818460208701614742565b9190910192915050565b601f8211156152615760008160005260206000206020601f8601048101602086101561523e5750805b6020601f860104820191505b8181101561525d5782815560010161524a565b5050505b505050565b815167ffffffffffffffff811115615280576152806148f7565b6152948161528e845461511d565b84615215565b602080601f8311600181146152cd57600084156152b15750858301515b60028086026008870290910a600019041982161786555061525d565b600085815260208120601f198616915b828110156152fc578886015182559484019460019091019084016152dd565b508582101561531c57878501516008601f88160260020a60001904191681555b5050505050600202600101905550565b600081546153398161511d565b808552602060018381168015615356576001811461536f5761539d565b60ff19851688840152831515830288018301955061539d565b866000528260002060005b858110156153955781548a820186015290830190840161537a565b890184019650505b505050505092915050565b6060815260006153bb6060830186614766565b82810360208401526153cd818661532c565b90508281036040840152614c43818561532c565b60208082526015908201527f4f6e6c792061646d696e20697320616c6c6f7765640000000000000000000000604082015260600190565b60e060020a634e487b7102600052603260045260246000fd5b6080815260006154446080830187614766565b600160a060020a03868116602085015285166040840152905061546683614b40565b82606083015295945050505050565b6060815260006154886060830186614766565b828103602084015261549a818661532c565b90508281036040840152614c438185614766565b600160a060020a03851681526080602082015260006154d06080830186614766565b82810360408401526154e28186614766565b905082810360608401526154f68185614766565b979650505050505050565b600160a060020a03841681526060602082015260006155236060830185614766565b8281036040840152614c438185614766565b600160a060020a0384168152606060208201526000615523606083018561532c565b600160a060020a0383168152604060208201526000615579604083018461532c565b949350505050565b60e060020a634e487b7102600052601160045260246000fd5b600061ffff8083168181036155b1576155b1615581565b6001019392505050565b60e060020a634e487b7102600052601260045260246000fd5b6000826155e3576155e36155bb565b500690565b6000826155f7576155f76155bb565b500490565b60006001820161560e5761560e615581565b5060010190565b81810381811115612aae57612aae615581565b8082028115828204841417612aae57612aae61558156fea2646970667358221220ce8410c96be353b2321c5842c876d809d535a80d56210439cebca3feaad4bff864736f6c63430008170033",
  "immutableReferences": {},
  "source": "// SPDX-License-Identifier: GPL-3.0\npragma experimental ABIEncoderV2;\npragma solidity >=0.4.25 <0.9.0;\n\n/** \nAssumptions\n* Finanicial Institutions - Bank\n* Users - Customer\n* Super Admin - Admin\n*/\n\nimport \"./Customers.sol\";\nimport \"./Banks.sol\";\n\n/**\n * @title KYC\n * @author Suresh Konakanchi\n * @dev Library for managing KYC process seemlessly using de-centralised system\n */\ncontract KYC is Customers, Banks {\n    address admin;\n    address[] internal userList;\n\n    mapping(address => Types.User) internal users;\n    mapping(string => Types.KycRequest) internal kycRequests;\n    mapping(address => address[]) internal bankCustomers; // All customers associated to a Bank\n    mapping(address => address[]) internal customerbanks; // All banks associated to a Customer\n\n    /**\n     * @notice Set admin to one who deploy this contract\n     * Who will act as the super-admin to add all the financial institutions (banks)\n     * @param name_ Name of the admin\n     * @param email_ Email of the admin\n     */\n    constructor(string memory name_, string memory email_) {\n        admin = msg.sender;\n        Types.User memory usr_ = Types.User({\n            name: name_,\n            email: email_,\n            id_: admin,\n            role: Types.Role.Admin,\n            status: Types.BankStatus.Active\n        });\n        users[admin] = usr_;\n        userList.push(admin);\n    }\n\n    // Modifiers\n\n    /**\n     * @notice Checks whether the requestor is admin\n     */\n    modifier isAdmin() {\n        require(msg.sender == admin, \"Only admin is allowed\");\n        _;\n    }\n\n    // Support functions\n\n    /**\n     * @notice Checks whether the KYC request already exists\n     * @param reqId_ Unique Id of the KYC request\n     * @return boolean which says request exists or not\n     */\n    function kycRequestExists(string memory reqId_)\n        internal\n        view\n        returns (bool)\n    {\n        require(!Helpers.compareStrings(reqId_, \"\"), \"Request Id empty\");\n        return Helpers.compareStrings(kycRequests[reqId_].id_, reqId_);\n    }\n\n    /**\n     * @notice All kyc requests. Data will be sent in pages to avoid the more gas fee\n     * @param pageNumber page number for which data is needed (1..2..3....n)\n     * @param isForBank List needed for bank or for customer\n     * @return totalPages Total pages available\n     * @return KycRequest[] List of KYC requests in the current page\n     */\n    function getKYCRequests(uint256 pageNumber, bool isForBank)\n        internal\n        view\n        returns (uint256 totalPages, Types.KycRequest[] memory)\n    {\n        require(pageNumber > 0, \"PN should be > zero\");\n        (\n            uint256 pages,\n            uint256 pageLength_,\n            uint256 startIndex_,\n            uint256 endIndex_\n        ) = Helpers.getIndexes(\n                pageNumber,\n                isForBank\n                    ? bankCustomers[msg.sender]\n                    : customerbanks[msg.sender]\n            );\n        Types.KycRequest[] memory list_ = new Types.KycRequest[](pageLength_);\n        for (uint256 i = startIndex_; i < endIndex_; i++)\n            list_[i] = isForBank\n                ? kycRequests[\n                    Helpers.append(msg.sender, bankCustomers[msg.sender][i])\n                ]\n                : kycRequests[\n                    Helpers.append(customerbanks[msg.sender][i], msg.sender)\n                ];\n        return (pages, list_);\n    }\n\n    // Events\n\n    event KycRequestAdded(string reqId, string bankName, string customerName);\n    event KycReRequested(string reqId, string bankName, string customerName);\n    event KycStatusChanged(\n        string reqId,\n        address customerId,\n        address bankId,\n        Types.KycStatus status\n    );\n    event DataHashPermissionChanged(\n        string reqId,\n        address customerId,\n        address bankId,\n        Types.DataHashStatus status\n    );\n\n    // Admin Interface\n\n    /**\n     * @dev All the banks list. Data will be sent in pages to avoid the more gas fee\n     * @param pageNumber page number for which data is needed (1..2..3....n)\n     * @return totalPages Total pages available\n     * @return Bank[] List of banks in the current page\n     */\n    function getAllBanks(uint256 pageNumber)\n        public\n        view\n        isAdmin\n        returns (uint256 totalPages, Types.Bank[] memory)\n    {\n        return getallbanks(pageNumber);\n    }\n\n    /**\n     * @dev To add new bank account\n     * @param bank_ Bank details, which need to be added to the system\n     */\n    function addBank(Types.Bank memory bank_) public isAdmin {\n        addbank(bank_);\n        // Adding to common list\n        users[bank_.id_] = Types.User({\n            name: bank_.name,\n            email: bank_.email,\n            id_: bank_.id_,\n            role: Types.Role.Bank,\n            status: Types.BankStatus.Active\n        });\n        userList.push(bank_.id_);\n    }\n\n    /**\n     * @dev To add new bank account\n     * @param id_ Bank's metamask address\n     * @param email_ Bank's email address that need to be updated\n     * @param name_ Bank's name which need to be updated\n     */\n    function updateBankDetails(\n        address id_,\n        string memory email_,\n        string memory name_\n    ) public isAdmin {\n        updatebank(id_, email_, name_);\n        // Updating in common list\n        users[id_].name = name_;\n        users[id_].email = email_;\n    }\n\n    /**\n     * @dev To add new bank account\n     * @param id_ Bank's metamask address\n     * @param makeActive_ If true, bank will be marked as active, else, it will be marked as deactivateds\n     */\n    function activateDeactivateBank(address id_, bool makeActive_)\n        public\n        isAdmin\n    {\n        // Updating in common list\n        users[id_].status = activatedeactivatebank(id_, makeActive_);\n    }\n\n    // Bank Interface\n\n    /**\n     * @dev List of customers, who are linked to the current bank. Data will be sent in pages to avoid the more gas fee\n     * @param pageNumber page number for which data is needed (1..2..3....n)\n     * @return totalPages Total pages available\n     * @return KycRequest[] List of KYC requests in the current page\n     */\n    function getCustomersOfBank(uint256 pageNumber)\n        public\n        view\n        isValidBank(msg.sender)\n        returns (uint256 totalPages, Types.KycRequest[] memory)\n    {\n        return getKYCRequests(pageNumber, true);\n    }\n\n    /**\n     * @notice Records new KYC request for a customer\n     * @param customer_ Customer details for whom the request is to be raised\n     * @param currentTime_ Current Date & Time in unix epoch timestamp\n     * @param notes_ Any additional notes that need to be added\n     */\n    function addKycRequest(\n        Types.Customer memory customer_,\n        uint256 currentTime_,\n        string memory notes_\n    ) public isValidBank(msg.sender) {\n        string memory reqId_ = Helpers.append(msg.sender, customer_.id_);\n        require(!kycRequestExists(reqId_), \"User had kyc req.\");\n\n        kycRequests[reqId_] = Types.KycRequest({\n            id_: reqId_,\n            userId_: customer_.id_,\n            customerName: customer_.name,\n            bankId_: msg.sender,\n            bankName: getsinglebank(msg.sender).name,\n            dataHash: customer_.dataHash,\n            updatedOn: currentTime_,\n            status: Types.KycStatus.Pending,\n            dataRequest: Types.DataHashStatus.Pending,\n            additionalNotes: notes_\n        });\n        bankCustomers[msg.sender].push(customer_.id_);\n        customerbanks[customer_.id_].push(msg.sender);\n        emit KycRequestAdded(\n            reqId_,\n            kycRequests[reqId_].bankName,\n            customer_.name\n        );\n\n        if (!customerExists(customer_.id_)) {\n            addcustomer(customer_);\n            // Adding to common list\n            users[customer_.id_] = Types.User({\n                name: customer_.name,\n                email: customer_.email,\n                id_: customer_.id_,\n                role: Types.Role.Customer,\n                status: Types.BankStatus.Active\n            });\n            userList.push(customer_.id_);\n        }\n    }\n\n    /**\n     * @notice Updates existing KYC request for a customer (It's a re-request)\n     * @param id_ Customer ID for whom the request has to be re-raised\n     * @param notes_ Any additional notes that need to be added\n     */\n    function reRequestForKycRequest(address id_, string memory notes_)\n        public\n        isValidBank(msg.sender)\n    {\n        string memory reqId_ = Helpers.append(msg.sender, id_);\n        require(kycRequestExists(reqId_), \"KYC req not found\");\n        require(customerExists(id_), \"User not found\");\n\n        // kycRequests[reqId_].status = Types.KycStatus.Pending;\n        kycRequests[reqId_].dataRequest = Types.DataHashStatus.Pending;\n        kycRequests[reqId_].additionalNotes = notes_;\n\n        emit KycReRequested(\n            reqId_,\n            kycRequests[reqId_].bankName,\n            kycRequests[reqId_].customerName\n        );\n    }\n\n    /**\n     * @dev To mark the KYC verification as failure\n     * @param userId_ Id of the user\n     * @param userId_ KYC Verified\n     * @param note_ Any info that need to be shared\n     */\n    function updateKycVerification(\n        address userId_,\n        bool verified_,\n        string memory note_\n    ) public isValidBank(msg.sender) {\n        string memory reqId_ = Helpers.append(msg.sender, userId_);\n        require(kycRequestExists(reqId_), \"User doesn't have KYC req\");\n\n        Types.KycStatus status_ = Types.KycStatus.Pending;\n        if (verified_) {\n            status_ = Types.KycStatus.KYCVerified;\n            updatekyccount(msg.sender);\n            updatekycdoneby(userId_);\n        } else {\n            status_ = Types.KycStatus.KYCFailed;\n        }\n\n        kycRequests[reqId_].status = status_;\n        kycRequests[reqId_].additionalNotes = note_;\n        emit KycStatusChanged(reqId_, userId_, msg.sender, status_);\n    }\n\n    /**\n     * @dev Search for customer details in the list that the bank is directly linked to\n     * @param id_ Customer's metamask Id\n     * @return boolean to say if customer exists or not\n     * @return Customer object to get the complete details of the customer\n     * @return KycRequest object to get the details about the request & it's status\n     * Costly operation if we had more customers linked to this single bank\n     */\n    function searchCustomers(address id_)\n        public\n        view\n        isValidCustomer(id_)\n        isValidBank(msg.sender)\n        returns (\n            bool,\n            Types.Customer memory,\n            Types.KycRequest memory\n        )\n    {\n        bool found_;\n        Types.Customer memory customer_;\n        Types.KycRequest memory request_;\n        (found_, customer_) = searchcustomers(id_, bankCustomers[msg.sender]);\n        if (found_) request_ = kycRequests[Helpers.append(msg.sender, id_)];\n        return (found_, customer_, request_);\n    }\n\n    // Customer Interface\n\n    /**\n     * @notice List of all banks. Data will be sent in pages to avoid the more gas fee\n     * @dev This is customer facing RPC end point\n     * @param pageNumber page number for which data is needed (1..2..3....n)\n     * @return totalPages Total pages available\n     * @return KycRequest[] List of KYC requests in the current page\n     */\n    function getBankRequests(uint256 pageNumber)\n        public\n        view\n        isValidCustomer(msg.sender)\n        returns (uint256 totalPages, Types.KycRequest[] memory)\n    {\n        return getKYCRequests(pageNumber, false);\n    }\n\n    /**\n     * @dev Updates the KYC request (Either Approves or Rejects)\n     * @param bankId_ Id of the bank\n     * @param approve_ Approve the data hash or reject\n     * @param note_ Any info that need to be shared\n     */\n    function actionOnKycRequest(\n        address bankId_,\n        bool approve_,\n        string memory note_\n    ) public isValidCustomer(msg.sender) isValidBank(bankId_) {\n        string memory reqId_ = Helpers.append(bankId_, msg.sender);\n        require(kycRequestExists(reqId_), \"User doesn't have KYC req\");\n\n        Types.DataHashStatus status_ = Types.DataHashStatus.Pending;\n        if (approve_) {\n            status_ = Types.DataHashStatus.Approved;\n        } else {\n            status_ = Types.DataHashStatus.Rejected;\n        }\n        kycRequests[reqId_].dataRequest = status_;\n        kycRequests[reqId_].additionalNotes = note_;\n\n        emit DataHashPermissionChanged(reqId_, msg.sender, bankId_, status_);\n    }\n\n    /**\n     * @dev Updates the user profile\n     * @param name_ Customer name\n     * @param email_ Email that need to be updated\n     * @param mobile_ Mobile number that need to be updated\n     */\n    function updateProfile(\n        string memory name_,\n        string memory email_,\n        uint256 mobile_\n    ) public isValidCustomer(msg.sender) {\n        updateprofile(name_, email_, mobile_);\n        // Updating in common list\n        users[msg.sender].name = name_;\n        users[msg.sender].email = email_;\n    }\n\n    /**\n     * @dev Updates the Datahash of the documents\n     * @param hash_ Data hash value that need to be updated\n     * @param currentTime_ Current Date Time in unix epoch timestamp\n     */\n    function updateDatahash(string memory hash_, uint256 currentTime_)\n        public\n        isValidCustomer(msg.sender)\n    {\n        updatedatahash(hash_, currentTime_);\n\n        // Reset KYC verification status for all banks\n        address[] memory banksList_ = customerbanks[msg.sender];\n        for (uint256 i = 0; i < banksList_.length; i++) {\n            string memory reqId_ = Helpers.append(banksList_[i], msg.sender);\n            if (kycRequestExists(reqId_)) {\n                kycRequests[reqId_].dataHash = hash_;\n                kycRequests[reqId_].updatedOn = currentTime_;\n                kycRequests[reqId_].status = Types.KycStatus.Pending;\n                kycRequests[reqId_].additionalNotes = \"Updated all my docs\";\n            }\n        }\n    }\n\n    /**\n     * @dev Removes the permission to a specific bank, so that they can't access the documents again\n     * @param bankId_ Id of the bank to whom permission has to be revoked\n     * @param notes_ Any additional notes that need to included\n     */\n    function removerDatahashPermission(address bankId_, string memory notes_)\n        public\n        isValidCustomer(msg.sender)\n    {\n        string memory reqId_ = Helpers.append(bankId_, msg.sender);\n        require(kycRequestExists(reqId_), \"Permission not found\");\n        kycRequests[reqId_].dataRequest = Types.DataHashStatus.Rejected;\n        kycRequests[reqId_].additionalNotes = notes_;\n        emit DataHashPermissionChanged(\n            reqId_,\n            msg.sender,\n            bankId_,\n            Types.DataHashStatus.Rejected\n        );\n    }\n\n    /**\n     * @dev Search for bank details in the list that the customer is directly linked to\n     * @param bankId_ Bank's metamask Id\n     * @return boolean to say if bank exists or not\n     * @return Bank object to get the complete details of the bank\n     * @return KycRequest object to get the details about the request & it's status\n     * Costly operation if we had more banks linked to this single customer\n     */\n    function searchBanks(address bankId_)\n        public\n        view\n        isValidCustomer(msg.sender)\n        isValidBank(bankId_)\n        returns (\n            bool,\n            Types.Bank memory,\n            Types.KycRequest memory\n        )\n    {\n        bool found_;\n        Types.Bank memory bank_;\n        Types.KycRequest memory request_;\n        address[] memory banks_ = customerbanks[msg.sender];\n\n        for (uint256 i = 0; i < banks_.length; i++) {\n            if (banks_[i] == bankId_) {\n                found_ = true;\n                bank_ = getsinglebank(bankId_);\n                request_ = kycRequests[Helpers.append(bankId_, msg.sender)];\n                break;\n            }\n        }\n        return (found_, bank_, request_);\n    }\n\n    // Common Interface\n\n    /**\n     * @dev Updates the KYC request (Either Approves or Rejects)\n     * @return User object which contains the role & other basic info\n     */\n    function whoAmI() public view returns (Types.User memory) {\n        require(msg.sender != address(0), \"Sender Id Empty\");\n        require(users[msg.sender].id_ != address(0), \"User Id Empty\");\n        return users[msg.sender];\n    }\n\n    /**\n     * @dev To get details of the customer\n     * @param id_ Customer's metamask address\n     * @return Customer object which will have complete details of the customer\n     */\n    function getCustomerDetails(address id_)\n        public\n        view\n        isValidCustomer(id_)\n        returns (Types.Customer memory)\n    {\n        return getcustomerdetails(id_);\n    }\n\n    /**\n     * @dev To get details of the bank\n     * @param id_ Bank's metamask address\n     * @return Bank object which will have complete details of the bank\n     */\n    function getBankDetails(address id_)\n        public\n        view\n        isValidBank(id_)\n        returns (Types.Bank memory)\n    {\n        return getsinglebank(id_);\n    }\n}\n",
  "sourcePath": "C:\\Users\\MANAV\\Downloads\\blockchain_project\\sample-decentralised-kyc-ethereum-main\\blockchain\\contracts\\KYC.sol",
  "compiler": {
    "name": "solc",
    "version": "0.8.23+commit.f704f362.Emscripten.clang"
  },
  "schemaVersion": "3.4.16",
  "updatedAt": "2023-12-11T07:49:29.463Z",
  "devdoc": {
    "author": "Suresh Konakanchi",
    "details": "Library for managing KYC process seemlessly using de-centralised system",
    "kind": "dev",
    "methods": {
      "actionOnKycRequest(address,bool,string)": {
        "details": "Updates the KYC request (Either Approves or Rejects)",
        "params": {
          "approve_": "Approve the data hash or reject",
          "bankId_": "Id of the bank",
          "note_": "Any info that need to be shared"
        }
      },
      "activateDeactivateBank(address,bool)": {
        "details": "To add new bank account",
        "params": {
          "id_": "Bank's metamask address",
          "makeActive_": "If true, bank will be marked as active, else, it will be marked as deactivateds"
        }
      },
      "addBank((string,string,address,string,uint16,uint8))": {
        "details": "To add new bank account",
        "params": {
          "bank_": "Bank details, which need to be added to the system"
        }
      },
      "addKycRequest((string,string,uint256,address,address,string,uint256),uint256,string)": {
        "params": {
          "currentTime_": "Current Date & Time in unix epoch timestamp",
          "customer_": "Customer details for whom the request is to be raised",
          "notes_": "Any additional notes that need to be added"
        }
      },
      "constructor": {
        "params": {
          "email_": "Email of the admin",
          "name_": "Name of the admin"
        }
      },
      "getAllBanks(uint256)": {
        "details": "All the banks list. Data will be sent in pages to avoid the more gas fee",
        "params": {
          "pageNumber": "page number for which data is needed (1..2..3....n)"
        },
        "returns": {
          "_1": "Bank[] List of banks in the current page",
          "totalPages": "Total pages available"
        }
      },
      "getBankDetails(address)": {
        "details": "To get details of the bank",
        "params": {
          "id_": "Bank's metamask address"
        },
        "returns": {
          "_0": "Bank object which will have complete details of the bank"
        }
      },
      "getBankRequests(uint256)": {
        "details": "This is customer facing RPC end point",
        "params": {
          "pageNumber": "page number for which data is needed (1..2..3....n)"
        },
        "returns": {
          "_1": "KycRequest[] List of KYC requests in the current page",
          "totalPages": "Total pages available"
        }
      },
      "getCustomerDetails(address)": {
        "details": "To get details of the customer",
        "params": {
          "id_": "Customer's metamask address"
        },
        "returns": {
          "_0": "Customer object which will have complete details of the customer"
        }
      },
      "getCustomersOfBank(uint256)": {
        "details": "List of customers, who are linked to the current bank. Data will be sent in pages to avoid the more gas fee",
        "params": {
          "pageNumber": "page number for which data is needed (1..2..3....n)"
        },
        "returns": {
          "_1": "KycRequest[] List of KYC requests in the current page",
          "totalPages": "Total pages available"
        }
      },
      "reRequestForKycRequest(address,string)": {
        "params": {
          "id_": "Customer ID for whom the request has to be re-raised",
          "notes_": "Any additional notes that need to be added"
        }
      },
      "removerDatahashPermission(address,string)": {
        "details": "Removes the permission to a specific bank, so that they can't access the documents again",
        "params": {
          "bankId_": "Id of the bank to whom permission has to be revoked",
          "notes_": "Any additional notes that need to included"
        }
      },
      "searchBanks(address)": {
        "details": "Search for bank details in the list that the customer is directly linked to",
        "params": {
          "bankId_": "Bank's metamask Id"
        },
        "returns": {
          "_0": "boolean to say if bank exists or not",
          "_1": "Bank object to get the complete details of the bank",
          "_2": "KycRequest object to get the details about the request & it's status Costly operation if we had more banks linked to this single customer"
        }
      },
      "searchCustomers(address)": {
        "details": "Search for customer details in the list that the bank is directly linked to",
        "params": {
          "id_": "Customer's metamask Id"
        },
        "returns": {
          "_0": "boolean to say if customer exists or not",
          "_1": "Customer object to get the complete details of the customer",
          "_2": "KycRequest object to get the details about the request & it's status Costly operation if we had more customers linked to this single bank"
        }
      },
      "updateBankDetails(address,string,string)": {
        "details": "To add new bank account",
        "params": {
          "email_": "Bank's email address that need to be updated",
          "id_": "Bank's metamask address",
          "name_": "Bank's name which need to be updated"
        }
      },
      "updateDatahash(string,uint256)": {
        "details": "Updates the Datahash of the documents",
        "params": {
          "currentTime_": "Current Date Time in unix epoch timestamp",
          "hash_": "Data hash value that need to be updated"
        }
      },
      "updateKycVerification(address,bool,string)": {
        "details": "To mark the KYC verification as failure",
        "params": {
          "note_": "Any info that need to be shared",
          "userId_": "KYC Verified"
        }
      },
      "updateProfile(string,string,uint256)": {
        "details": "Updates the user profile",
        "params": {
          "email_": "Email that need to be updated",
          "mobile_": "Mobile number that need to be updated",
          "name_": "Customer name"
        }
      },
      "whoAmI()": {
        "details": "Updates the KYC request (Either Approves or Rejects)",
        "returns": {
          "_0": "User object which contains the role & other basic info"
        }
      }
    },
    "title": "KYC",
    "version": 1
  },
  "userdoc": {
    "kind": "user",
    "methods": {
      "addKycRequest((string,string,uint256,address,address,string,uint256),uint256,string)": {
        "notice": "Records new KYC request for a customer"
      },
      "constructor": {
        "notice": "Set admin to one who deploy this contract Who will act as the super-admin to add all the financial institutions (banks)"
      },
      "getBankRequests(uint256)": {
        "notice": "List of all banks. Data will be sent in pages to avoid the more gas fee"
      },
      "reRequestForKycRequest(address,string)": {
        "notice": "Updates existing KYC request for a customer (It's a re-request)"
      }
    },
    "version": 1
  }
}